{
  "contractName": "Insurance",
  "abi": [
    {
      "constant": true,
      "inputs": [],
      "name": "getRefund",
      "outputs": [
        {
          "internalType": "int256",
          "name": "ret",
          "type": "int256"
        }
      ],
      "payable": false,
      "stateMutability": "view",
      "type": "function"
    },
    {
      "constant": true,
      "inputs": [],
      "name": "isRefund",
      "outputs": [
        {
          "internalType": "bool",
          "name": "ret",
          "type": "bool"
        }
      ],
      "payable": false,
      "stateMutability": "view",
      "type": "function"
    }
  ],
  "bytecode": "0x60806040526000805460ff1916905561138860015534801561002057600080fd5b5060ad8061002f6000396000f3fe6080604052348015600f57600080fd5b506004361060325760003560e01c8063b2d5ae44146037578063d921eb7814604f575b600080fd5b603d6069565b60408051918252519081900360200190f35b6055606f565b604080519115158252519081900360200190f35b60015490565b60005460ff169056fea265627a7a723158204728b8095590ebc2b77c1a13916705092035a275dd67a489adad071b520856db64736f6c634300050c0032",
  "source": "pragma solidity ^0.5.0;\n\ncontract Insurance {\n  bool is_Refund = false;\n  int refund = 5000;\n\n  function getRefund() public view  returns (int ret) {\n    return refund;\n  }\n\n  function isRefund() public view returns (bool ret){\n    return is_Refund;\n  }\n\n}\n",
  "sourcePath": "/Users/ypli/gitDocs/DistributedSystemTermProject/famerInsurance/contracts/Insurance.sol",
  "compiler": {
    "name": "solc",
    "version": "0.5.12+commit.7709ece9.Emscripten.clang"
  },
  "schemaVersion": "3.0.19",
  "updatedAt": "2019-12-14T22:34:35.015Z",
  "networkType": "ethereum",
  "devdoc": {
    "methods": {}
  },
  "userdoc": {
    "methods": {}
  }
}