{
  "contractName": "Insurance",
  "abi": [
    {
      "constant": true,
      "inputs": [],
      "name": "getRefund",
      "outputs": [
        {
          "name": "ret",
          "type": "int256"
        }
      ],
      "payable": false,
      "stateMutability": "view",
      "type": "function"
    },
    {
      "constant": true,
      "inputs": [],
      "name": "isRefund",
      "outputs": [
        {
          "name": "ret",
          "type": "bool"
        }
      ],
      "payable": false,
      "stateMutability": "view",
      "type": "function"
    }
  ],
  "bytecode": "0x608060405260008060006101000a81548160ff02191690831515021790555061138860015534801561003057600080fd5b5060bf8061003f6000396000f3fe6080604052348015600f57600080fd5b506004361060325760003560e01c8063b2d5ae44146037578063d921eb78146053575b600080fd5b603d6073565b6040518082815260200191505060405180910390f35b6059607d565b604051808215151515815260200191505060405180910390f35b6000600154905090565b60008060009054906101000a900460ff1690509056fea165627a7a72305820b2556bb1a24b51d96a71f1ac7358d22b7663091d7fbbd4f6cb12c96037d116cf0029",
  "source": "pragma solidity ^0.5.0;\r\n\r\ncontract Insurance {\r\n  bool is_Refund = false;\r\n  int refund = 5000;\r\n\r\n  function getRefund() public view  returns (int ret) {\r\n    return refund;\r\n  }\r\n\r\n  function isRefund() public view returns (bool ret){\r\n    return is_Refund;\r\n  }\r\n\r\n}\r\n",
  "sourcePath": "C:/Users/Jieyun Hu/git/famerInsurance/contracts/Insurance.sol",
  "compiler": {
    "name": "solc",
    "version": "0.5.8+commit.23d335f2.Emscripten.clang"
  },
  "schemaVersion": "3.0.16",
  "updatedAt": "2019-12-13T19:28:45.557Z",
  "devdoc": {
    "methods": {}
  },
  "userdoc": {
    "methods": {}
  }
}