{
  "contractName": "Insurance",
  "abi": [
    {
      "constant": true,
      "inputs": [],
      "name": "agent_address",
      "outputs": [
        {
          "name": "",
          "type": "address"
        }
      ],
      "payable": false,
      "stateMutability": "view",
      "type": "function"
    },
    {
      "constant": true,
      "inputs": [],
      "name": "money",
      "outputs": [
        {
          "name": "",
          "type": "uint256"
        }
      ],
      "payable": false,
      "stateMutability": "view",
      "type": "function"
    },
    {
      "constant": true,
      "inputs": [],
      "name": "farmer_counter",
      "outputs": [
        {
          "name": "",
          "type": "uint256"
        }
      ],
      "payable": false,
      "stateMutability": "view",
      "type": "function"
    },
    {
      "constant": true,
      "inputs": [],
      "name": "weather_address",
      "outputs": [
        {
          "name": "",
          "type": "address"
        }
      ],
      "payable": false,
      "stateMutability": "view",
      "type": "function"
    },
    {
      "constant": true,
      "inputs": [],
      "name": "claim_counter",
      "outputs": [
        {
          "name": "",
          "type": "uint256"
        }
      ],
      "payable": false,
      "stateMutability": "view",
      "type": "function"
    },
    {
      "constant": true,
      "inputs": [],
      "name": "weather_counter",
      "outputs": [
        {
          "name": "",
          "type": "uint256"
        }
      ],
      "payable": false,
      "stateMutability": "view",
      "type": "function"
    },
    {
      "anonymous": false,
      "inputs": [
        {
          "indexed": false,
          "name": "farmerid",
          "type": "uint256"
        }
      ],
      "name": "farmerAdded",
      "type": "event"
    },
    {
      "anonymous": false,
      "inputs": [
        {
          "indexed": false,
          "name": "id",
          "type": "uint256"
        }
      ],
      "name": "claimAdded",
      "type": "event"
    },
    {
      "constant": false,
      "inputs": [
        {
          "name": "_userName",
          "type": "string"
        },
        {
          "name": "_pwd",
          "type": "string"
        }
      ],
      "name": "addFarmer",
      "outputs": [],
      "payable": false,
      "stateMutability": "nonpayable",
      "type": "function"
    },
    {
      "constant": true,
      "inputs": [
        {
          "name": "_farmerAddress",
          "type": "address"
        }
      ],
      "name": "getFarmer",
      "outputs": [
        {
          "name": "id",
          "type": "uint256"
        },
        {
          "name": "_userName",
          "type": "string"
        }
      ],
      "payable": false,
      "stateMutability": "view",
      "type": "function"
    },
    {
      "constant": true,
      "inputs": [],
      "name": "isAddressRegistered",
      "outputs": [
        {
          "name": "registered",
          "type": "bool"
        }
      ],
      "payable": false,
      "stateMutability": "view",
      "type": "function"
    },
    {
      "constant": false,
      "inputs": [
        {
          "name": "_crop",
          "type": "string"
        },
        {
          "name": "_city",
          "type": "string"
        },
        {
          "name": "_time",
          "type": "uint256"
        },
        {
          "name": "_size",
          "type": "uint256"
        },
        {
          "name": "_description",
          "type": "string"
        }
      ],
      "name": "addClaim",
      "outputs": [],
      "payable": false,
      "stateMutability": "nonpayable",
      "type": "function"
    },
    {
      "constant": true,
      "inputs": [],
      "name": "viewClaim",
      "outputs": [
        {
          "name": "_claimId",
          "type": "uint256"
        },
        {
          "name": "_crop",
          "type": "string"
        },
        {
          "name": "_city",
          "type": "string"
        },
        {
          "name": "time",
          "type": "uint256"
        },
        {
          "name": "size",
          "type": "uint256"
        },
        {
          "name": "_description",
          "type": "string"
        }
      ],
      "payable": false,
      "stateMutability": "view",
      "type": "function"
    },
    {
      "constant": true,
      "inputs": [],
      "name": "checkStatus",
      "outputs": [
        {
          "name": "_isProved",
          "type": "string"
        }
      ],
      "payable": false,
      "stateMutability": "view",
      "type": "function"
    },
    {
      "constant": true,
      "inputs": [],
      "name": "isAgent",
      "outputs": [
        {
          "name": "_isAgent",
          "type": "bool"
        }
      ],
      "payable": false,
      "stateMutability": "view",
      "type": "function"
    },
    {
      "constant": true,
      "inputs": [
        {
          "name": "_claimeId",
          "type": "uint256"
        }
      ],
      "name": "getClaim",
      "outputs": [
        {
          "name": "_claimId",
          "type": "uint256"
        },
        {
          "name": "_crop",
          "type": "string"
        },
        {
          "name": "_city",
          "type": "string"
        },
        {
          "name": "time",
          "type": "uint256"
        },
        {
          "name": "size",
          "type": "uint256"
        },
        {
          "name": "_description",
          "type": "string"
        }
      ],
      "payable": false,
      "stateMutability": "view",
      "type": "function"
    },
    {
      "constant": false,
      "inputs": [
        {
          "name": "claim_id",
          "type": "uint256"
        },
        {
          "name": "_isProved",
          "type": "bool"
        }
      ],
      "name": "agentApprove",
      "outputs": [],
      "payable": false,
      "stateMutability": "nonpayable",
      "type": "function"
    },
    {
      "constant": false,
      "inputs": [
        {
          "name": "farmer",
          "type": "address"
        }
      ],
      "name": "refund",
      "outputs": [],
      "payable": true,
      "stateMutability": "payable",
      "type": "function"
    },
    {
      "constant": true,
      "inputs": [
        {
          "name": "_city",
          "type": "string"
        },
        {
          "name": "_time",
          "type": "uint256"
        }
      ],
      "name": "getWeather",
      "outputs": [
        {
          "name": "c",
          "type": "string"
        },
        {
          "name": "t",
          "type": "uint256"
        },
        {
          "name": "w",
          "type": "string"
        }
      ],
      "payable": false,
      "stateMutability": "view",
      "type": "function"
    },
    {
      "constant": true,
      "inputs": [],
      "name": "isWeather",
      "outputs": [
        {
          "name": "_weather",
          "type": "bool"
        }
      ],
      "payable": false,
      "stateMutability": "view",
      "type": "function"
    },
    {
      "constant": false,
      "inputs": [
        {
          "name": "_city",
          "type": "string"
        },
        {
          "name": "_time",
          "type": "uint256"
        },
        {
          "name": "_weather",
          "type": "string"
        }
      ],
      "name": "addWeather",
      "outputs": [],
      "payable": false,
      "stateMutability": "nonpayable",
      "type": "function"
    }
  ],
  "bytecode": "0x608060405273c9f11de50aadca2cc013663cbd94db367ce53a49600660006101000a81548173ffffffffffffffffffffffffffffffffffffffff021916908373ffffffffffffffffffffffffffffffffffffffff16021790555073adbcf40d5f23f15a947c09dbcca4a4e940aa0882600760006101000a81548173ffffffffffffffffffffffffffffffffffffffff021916908373ffffffffffffffffffffffffffffffffffffffff1602179055503480156100ba57600080fd5b50612553806100ca6000396000f3fe6080604052600436106101145760003560e01c8063932243ea116100a0578063e7609c1611610064578063e7609c1614610cfc578063e83dd70b14610dcd578063ec55965014610df8578063f07c706314610e27578063fa89401a14610e5657610114565b8063932243ea146108f2578063991cd78b14610921578063ba86629114610a80578063bb160ef114610ac7578063e1fd3fcb14610af257610114565b80634ddd108a116100e75780634ddd108a1461053b578063536e43b314610566578063540e7084146105915780635aef2447146105e8578063878355201461078957610114565b806323fbe7f11461011957806326284617146102965780633b7104f2146102ed5780633f9cfbf71461037d575b600080fd5b34801561012557600080fd5b5061012e610e9a565b60405180878152602001806020018060200186815260200185815260200180602001848103845289818151815260200191508051906020019080838360005b8381101561018857808201518184015260208101905061016d565b50505050905090810190601f1680156101b55780820380516001836020036101000a031916815260200191505b50848103835288818151815260200191508051906020019080838360005b838110156101ee5780820151818401526020810190506101d3565b50505050905090810190601f16801561021b5780820380516001836020036101000a031916815260200191505b50848103825285818151815260200191508051906020019080838360005b83811015610254578082015181840152602081019050610239565b50505050905090810190601f1680156102815780820380516001836020036101000a031916815260200191505b50995050505050505050505060405180910390f35b3480156102a257600080fd5b506102ab611145565b604051808273ffffffffffffffffffffffffffffffffffffffff1673ffffffffffffffffffffffffffffffffffffffff16815260200191505060405180910390f35b3480156102f957600080fd5b5061030261116b565b6040518080602001828103825283818151815260200191508051906020019080838360005b83811015610342578082015181840152602081019050610327565b50505050905090810190601f16801561036f5780820380516001836020036101000a031916815260200191505b509250505060405180910390f35b34801561038957600080fd5b5061044d600480360360408110156103a057600080fd5b81019080803590602001906401000000008111156103bd57600080fd5b8201836020820111156103cf57600080fd5b803590602001918460018302840111640100000000831117156103f157600080fd5b91908080601f016020809104026020016040519081016040528093929190818152602001838380828437600081840152601f19601f820116905080830192505050505050509192919290803590602001909291905050506112cb565b604051808060200184815260200180602001838103835286818151815260200191508051906020019080838360005b8381101561049757808201518184015260208101905061047c565b50505050905090810190601f1680156104c45780820380516001836020036101000a031916815260200191505b50838103825284818151815260200191508051906020019080838360005b838110156104fd5780820151818401526020810190506104e2565b50505050905090810190601f16801561052a5780820380516001836020036101000a031916815260200191505b509550505050505060405180910390f35b34801561054757600080fd5b5061055061158e565b6040518082815260200191505060405180910390f35b34801561057257600080fd5b5061057b611594565b6040518082815260200191505060405180910390f35b34801561059d57600080fd5b506105a661159a565b604051808273ffffffffffffffffffffffffffffffffffffffff1673ffffffffffffffffffffffffffffffffffffffff16815260200191505060405180910390f35b3480156105f457600080fd5b506106216004803603602081101561060b57600080fd5b81019080803590602001909291905050506115c0565b60405180878152602001806020018060200186815260200185815260200180602001848103845289818151815260200191508051906020019080838360005b8381101561067b578082015181840152602081019050610660565b50505050905090810190601f1680156106a85780820380516001836020036101000a031916815260200191505b50848103835288818151815260200191508051906020019080838360005b838110156106e15780820151818401526020810190506106c6565b50505050905090810190601f16801561070e5780820380516001836020036101000a031916815260200191505b50848103825285818151815260200191508051906020019080838360005b8381101561074757808201518184015260208101905061072c565b50505050905090810190601f1680156107745780820380516001836020036101000a031916815260200191505b50995050505050505050505060405180910390f35b34801561079557600080fd5b506108f0600480360360608110156107ac57600080fd5b81019080803590602001906401000000008111156107c957600080fd5b8201836020820111156107db57600080fd5b803590602001918460018302840111640100000000831117156107fd57600080fd5b91908080601f016020809104026020016040519081016040528093929190818152602001838380828437600081840152601f19601f820116905080830192505050505050509192919290803590602001909291908035906020019064010000000081111561086a57600080fd5b82018360208201111561087c57600080fd5b8035906020019184600183028401116401000000008311171561089e57600080fd5b91908080601f016020809104026020016040519081016040528093929190818152602001838380828437600081840152601f19601f8201169050808301925050505050505091929192905050506118e7565b005b3480156108fe57600080fd5b50610907611be5565b604051808215151515815260200191505060405180910390f35b34801561092d57600080fd5b50610a7e6004803603604081101561094457600080fd5b810190808035906020019064010000000081111561096157600080fd5b82018360208201111561097357600080fd5b8035906020019184600183028401116401000000008311171561099557600080fd5b91908080601f016020809104026020016040519081016040528093929190818152602001838380828437600081840152601f19601f820116905080830192505050505050509192919290803590602001906401000000008111156109f857600080fd5b820183602082011115610a0a57600080fd5b80359060200191846001830284011164010000000083111715610a2c57600080fd5b91908080601f016020809104026020016040519081016040528093929190818152602001838380828437600081840152601f19601f820116905080830192505050505050509192919290505050611c54565b005b348015610a8c57600080fd5b50610ac560048036036040811015610aa357600080fd5b8101908080359060200190929190803515159060200190929190505050611d80565b005b348015610ad357600080fd5b50610adc611eb3565b6040518082815260200191505060405180910390f35b348015610afe57600080fd5b50610cfa600480360360a0811015610b1557600080fd5b8101908080359060200190640100000000811115610b3257600080fd5b820183602082011115610b4457600080fd5b80359060200191846001830284011164010000000083111715610b6657600080fd5b91908080601f016020809104026020016040519081016040528093929190818152602001838380828437600081840152601f19601f82011690508083019250505050505050919291929080359060200190640100000000811115610bc957600080fd5b820183602082011115610bdb57600080fd5b80359060200191846001830284011164010000000083111715610bfd57600080fd5b91908080601f016020809104026020016040519081016040528093929190818152602001838380828437600081840152601f19601f820116905080830192505050505050509192919290803590602001909291908035906020019092919080359060200190640100000000811115610c7457600080fd5b820183602082011115610c8657600080fd5b80359060200191846001830284011164010000000083111715610ca857600080fd5b91908080601f016020809104026020016040519081016040528093929190818152602001838380828437600081840152601f19601f820116905080830192505050505050509192919290505050611eb9565b005b348015610d0857600080fd5b50610d4b60048036036020811015610d1f57600080fd5b81019080803573ffffffffffffffffffffffffffffffffffffffff1690602001909291905050506120f6565b6040518083815260200180602001828103825283818151815260200191508051906020019080838360005b83811015610d91578082015181840152602081019050610d76565b50505050905090810190601f168015610dbe5780820380516001836020036101000a031916815260200191505b50935050505060405180910390f35b348015610dd957600080fd5b50610de2612224565b6040518082815260200191505060405180910390f35b348015610e0457600080fd5b50610e0d61222a565b604051808215151515815260200191505060405180910390f35b348015610e3357600080fd5b50610e3c612299565b604051808215151515815260200191505060405180910390f35b610e9860048036036020811015610e6c57600080fd5b81019080803573ffffffffffffffffffffffffffffffffffffffff1690602001909291905050506122f5565b005b600060608060008060606000600460003373ffffffffffffffffffffffffffffffffffffffff1673ffffffffffffffffffffffffffffffffffffffff1681526020019081526020016000206004015490508060056000838152602001908152602001600020600101600560008481526020019081526020016000206002016005600085815260200190815260200160002060030154600560008681526020019081526020016000206004015460056000878152602001908152602001600020600501848054600181600116156101000203166002900480601f016020809104026020016040519081016040528092919081815260200182805460018160011615610100020316600290048015610ff15780601f10610fc657610100808354040283529160200191610ff1565b820191906000526020600020905b815481529060010190602001808311610fd457829003601f168201915b50505050509450838054600181600116156101000203166002900480601f01602080910402602001604051908101604052809291908181526020018280546001816001161561010002031660029004801561108d5780601f106110625761010080835404028352916020019161108d565b820191906000526020600020905b81548152906001019060200180831161107057829003601f168201915b50505050509350808054600181600116156101000203166002900480601f0160208091040260200160405190810160405280929190818152602001828054600181600116156101000203166002900480156111295780601f106110fe57610100808354040283529160200191611129565b820191906000526020600020905b81548152906001019060200180831161110c57829003601f168201915b5050505050905096509650965096509650965050909192939495565b600660009054906101000a900473ffffffffffffffffffffffffffffffffffffffff1681565b60606000600460003373ffffffffffffffffffffffffffffffffffffffff1673ffffffffffffffffffffffffffffffffffffffff16815260200190815260200160002060040154905060016005600083815260200190815260200160002060060160009054906101000a900460ff1660ff161415611221576040518060400160405280601581526020017f596f75277665206265656e20417070726f7665642100000000000000000000008152509150506112c8565b60026005600083815260200190815260200160002060060160009054906101000a900460ff1660ff16141561128e576040518060400160405280601e81526020017f536f7272792c20796f757220636c61696d2069732072656a65637465642e00008152509150506112c8565b6040518060400160405280600781526020017f70656e64696e67000000000000000000000000000000000000000000000000008152509150505b90565b6060600060606008856040518082805190602001908083835b6020831061130757805182526020820191506020810190506020830392506112e4565b6001836020036101000a038019825116818451168082178552505050505050905001915050908152602001604051809103902060008581526020019081526020016000206001016008866040518082805190602001908083835b602083106113845780518252602082019150602081019050602083039250611361565b6001836020036101000a03801982511681845116808217855250505050505090500191505090815260200160405180910390206000868152602001908152602001600020600201546008876040518082805190602001908083835b6020831061140257805182526020820191506020810190506020830392506113df565b6001836020036101000a03801982511681845116808217855250505050505090500191505090815260200160405180910390206000878152602001908152602001600020600301828054600181600116156101000203166002900480601f0160208091040260200160405190810160405280929190818152602001828054600181600116156101000203166002900480156114de5780601f106114b3576101008083540402835291602001916114de565b820191906000526020600020905b8154815290600101906020018083116114c157829003601f168201915b50505050509250808054600181600116156101000203166002900480601f01602080910402602001604051908101604052809291908181526020018280546001816001161561010002031660029004801561157a5780601f1061154f5761010080835404028352916020019161157a565b820191906000526020600020905b81548152906001019060200180831161155d57829003601f168201915b505050505090509250925092509250925092565b60005481565b60025481565b600760009054906101000a900473ffffffffffffffffffffffffffffffffffffffff1681565b60006060806000806060600660009054906101000a900473ffffffffffffffffffffffffffffffffffffffff1673ffffffffffffffffffffffffffffffffffffffff163373ffffffffffffffffffffffffffffffffffffffff161461168d576040517f08c379a00000000000000000000000000000000000000000000000000000000081526004018080602001828103825260168152602001807f596f7520617265206e6f7420617574686f72697a65640000000000000000000081525060200191505060405180910390fd5b8660056000898152602001908152602001600020600101600560008a8152602001908152602001600020600201600560008b815260200190815260200160002060030154600560008c815260200190815260200160002060040154600560008d8152602001908152602001600020600501848054600181600116156101000203166002900480601f0160208091040260200160405190810160405280929190818152602001828054600181600116156101000203166002900480156117935780601f1061176857610100808354040283529160200191611793565b820191906000526020600020905b81548152906001019060200180831161177657829003601f168201915b50505050509450838054600181600116156101000203166002900480601f01602080910402602001604051908101604052809291908181526020018280546001816001161561010002031660029004801561182f5780601f106118045761010080835404028352916020019161182f565b820191906000526020600020905b81548152906001019060200180831161181257829003601f168201915b50505050509350808054600181600116156101000203166002900480601f0160208091040260200160405190810160405280929190818152602001828054600181600116156101000203166002900480156118cb5780601f106118a0576101008083540402835291602001916118cb565b820191906000526020600020905b8154815290600101906020018083116118ae57829003601f168201915b5050505050905095509550955095509550955091939550919395565b3373ffffffffffffffffffffffffffffffffffffffff16600760009054906101000a900473ffffffffffffffffffffffffffffffffffffffff1673ffffffffffffffffffffffffffffffffffffffff16146119aa576040517f08c379a00000000000000000000000000000000000000000000000000000000081526004018080602001828103825260168152602001807f596f7520617265206e6f7420617574686f72697a65640000000000000000000081525060200191505060405180910390fd5b6001600354016003819055506003546008846040518082805190602001908083835b602083106119ef57805182526020820191506020810190506020830392506119cc565b6001836020036101000a0380198251168184511680821785525050505050509050019150509081526020016040518091039020600084815260200190815260200160002060000181905550826008846040518082805190602001908083835b60208310611a715780518252602082019150602081019050602083039250611a4e565b6001836020036101000a038019825116818451168082178552505050505050905001915050908152602001604051809103902060008481526020019081526020016000206001019080519060200190611acb929190612402565b50816008846040518082805190602001908083835b60208310611b035780518252602082019150602081019050602083039250611ae0565b6001836020036101000a0380198251168184511680821785525050505050509050019150509081526020016040518091039020600084815260200190815260200160002060020181905550806008846040518082805190602001908083835b60208310611b855780518252602082019150602081019050602083039250611b62565b6001836020036101000a038019825116818451168082178552505050505050905001915050908152602001604051809103902060008481526020019081526020016000206003019080519060200190611bdf929190612402565b50505050565b600080339050600660009054906101000a900473ffffffffffffffffffffffffffffffffffffffff1673ffffffffffffffffffffffffffffffffffffffff168173ffffffffffffffffffffffffffffffffffffffff161415611c4b576001915050611c51565b60009150505b90565b60003390506001600254016002819055506040518060a0016040528060025481526020018481526020018381526020016001151581526020016000815250600460008373ffffffffffffffffffffffffffffffffffffffff1673ffffffffffffffffffffffffffffffffffffffff168152602001908152602001600020600082015181600001556020820151816001019080519060200190611cf7929190612482565b506040820151816002019080519060200190611d14929190612482565b5060608201518160030160006101000a81548160ff021916908315150217905550608082015181600401559050507f474989e6773f14b69e98f0658ba157019a672ebcf32e6619612bd9626d5864c66002546040518082815260200191505060405180910390a1505050565b3373ffffffffffffffffffffffffffffffffffffffff16600660009054906101000a900473ffffffffffffffffffffffffffffffffffffffff1673ffffffffffffffffffffffffffffffffffffffff1614611e43576040517f08c379a00000000000000000000000000000000000000000000000000000000081526004018080602001828103825260168152602001807f596f7520617265206e6f7420617574686f72697a65640000000000000000000081525060200191505060405180910390fd5b8015611e7e5760016005600084815260200190815260200160002060060160006101000a81548160ff021916908360ff160217905550611eaf565b60026005600084815260200190815260200160002060060160006101000a81548160ff021916908360ff1602179055505b5050565b60015481565b6001805401600181905550600460003373ffffffffffffffffffffffffffffffffffffffff1673ffffffffffffffffffffffffffffffffffffffff16815260200190815260200160002060030160009054906101000a900460ff16611f86576040517f08c379a00000000000000000000000000000000000000000000000000000000081526004018080602001828103825260158152602001807f506c65617365207265676973746572206669727374000000000000000000000081525060200191505060405180910390fd5b6040518060e001604052806001548152602001868152602001858152602001848152602001838152602001828152602001600060ff16815250600560006001548152602001908152602001600020600082015181600001556020820151816001019080519060200190611ffa929190612482565b506040820151816002019080519060200190612017929190612482565b50606082015181600301556080820151816004015560a0820151816005019080519060200190612048929190612482565b5060c08201518160060160006101000a81548160ff021916908360ff160217905550905050600154600460003373ffffffffffffffffffffffffffffffffffffffff1673ffffffffffffffffffffffffffffffffffffffff168152602001908152602001600020600401819055507f35afc9d8477d0fd4cf4a54f83cf5881d9d51e77725fc37cc1c8a3074e25658f46001546040518082815260200191505060405180910390a15050505050565b60006060600460008473ffffffffffffffffffffffffffffffffffffffff1673ffffffffffffffffffffffffffffffffffffffff16815260200190815260200160002060000154600460008573ffffffffffffffffffffffffffffffffffffffff1673ffffffffffffffffffffffffffffffffffffffff168152602001908152602001600020600101808054600181600116156101000203166002900480601f0160208091040260200160405190810160405280929190818152602001828054600181600116156101000203166002900480156122145780601f106121e957610100808354040283529160200191612214565b820191906000526020600020905b8154815290600101906020018083116121f757829003601f168201915b5050505050905091509150915091565b60035481565b600080339050600760009054906101000a900473ffffffffffffffffffffffffffffffffffffffff1673ffffffffffffffffffffffffffffffffffffffff168173ffffffffffffffffffffffffffffffffffffffff161415612290576001915050612296565b60009150505b90565b600080339050600460008273ffffffffffffffffffffffffffffffffffffffff1673ffffffffffffffffffffffffffffffffffffffff16815260200190815260200160002060030160009054906101000a900460ff1691505090565b3373ffffffffffffffffffffffffffffffffffffffff16600660009054906101000a900473ffffffffffffffffffffffffffffffffffffffff1673ffffffffffffffffffffffffffffffffffffffff16146123b8576040517f08c379a00000000000000000000000000000000000000000000000000000000081526004018080602001828103825260168152602001807f596f7520617265206e6f7420617574686f72697a65640000000000000000000081525060200191505060405180910390fd5b8073ffffffffffffffffffffffffffffffffffffffff166108fc349081150290604051600060405180830381858888f193505050501580156123fe573d6000803e3d6000fd5b5050565b828054600181600116156101000203166002900490600052602060002090601f016020900481019282601f1061244357805160ff1916838001178555612471565b82800160010185558215612471579182015b82811115612470578251825591602001919060010190612455565b5b50905061247e9190612502565b5090565b828054600181600116156101000203166002900490600052602060002090601f016020900481019282601f106124c357805160ff19168380011785556124f1565b828001600101855582156124f1579182015b828111156124f05782518255916020019190600101906124d5565b5b5090506124fe9190612502565b5090565b61252491905b80821115612520576000816000905550600101612508565b5090565b9056fea165627a7a72305820a73a62daf857aee5a172690cf6dde6bed58792fbb9aac04f8754b8d9e8d0e7030029",
  "source": "pragma solidity >=0.4.21 <0.6.0;\r\n\r\ncontract Insurance {\r\n\r\n  //modifiers will be added to constrain the access.\r\n  uint public money;\r\n  uint public claim_counter;\r\n  uint public farmer_counter;\r\n  uint public weather_counter;\r\n///////////////////////////////farmers Implementation///////////////////////////////////////////\r\n  struct Farmer{\r\n      uint farmerId;\r\n      string userName;\r\n      string pwd;\r\n      bool isRegisterd;\r\n      uint claim_id; //assure one farmer has only one claim;\r\n  }\r\n\r\n  mapping (address => Farmer) farmers;\r\n  event farmerAdded(uint farmerid);\r\n\r\n  //when register, add farmer information\r\n  function addFarmer(string memory _userName, string memory _pwd) public{\r\n    address farmer_address = msg.sender;\r\n    farmer_counter = farmer_counter + 1;\r\n      farmers[farmer_address] = Farmer(\r\n          {farmerId: farmer_counter,\r\n           userName: _userName,\r\n           pwd: _pwd,\r\n           isRegisterd : true,\r\n           claim_id : 0 //initialize claim id to 0;\r\n          });\r\n      emit farmerAdded(farmer_counter);\r\n  }\r\n\r\n  //for both farmer and agent, they can check the farmers userName\r\n  function getFarmer(address _farmerAddress) public view returns (uint id, string memory _userName){\r\n      return (farmers[_farmerAddress].farmerId,\r\n       farmers[_farmerAddress].userName);\r\n  }\r\n\r\n  //check whether is registered by address\r\n  function isAddressRegistered() public view returns (bool registered){\r\n      address farmer_address = msg.sender;\r\n      return farmers[farmer_address].isRegisterd;\r\n  }\r\n\r\n  struct Claim{\r\n      uint claimId;\r\n      string crop;\r\n      string city;\r\n      uint time;\r\n      uint size;\r\n      string description;\r\n      uint8 isProved; //0:pending, 1:proved, 2:reject\r\n  }\r\n  mapping (uint => Claim) claims;\r\n  event claimAdded(uint id);\r\n\r\n  //farmer claim a new claim\r\n  //Only registered farmer can do it.\r\n  function addClaim(string memory _crop, string memory _city, uint _time, uint _size, string memory _description) public{\r\n      claim_counter = claim_counter + 1;\r\n      require(farmers[msg.sender].isRegisterd,\"Please register first\");//farmer should be registered\r\n      claims[claim_counter] = Claim(\r\n          {claimId: claim_counter,\r\n          crop: _crop,\r\n          city: _city,\r\n          time: _time,\r\n          size: _size,\r\n          description: _description,\r\n          isProved: 0\r\n          });\r\n      farmers[msg.sender].claim_id = claim_counter; // update claim id to the farmer account.\r\n      emit claimAdded(claim_counter);\r\n  }\r\n\r\n  //only for farmers to review\r\n  function viewClaim() public view\r\n  returns (uint _claimId,string memory _crop, string memory _city, uint time, uint size, string memory _description){\r\n      uint id = farmers[msg.sender].claim_id;\r\n      return(\r\n          id,\r\n          claims[id].crop,\r\n          claims[id].city,\r\n          claims[id].time,\r\n          claims[id].size,\r\n          claims[id].description\r\n      );\r\n  }\r\n    //farmer can check the claim status\r\n    //Only one claim for each\r\n  function checkStatus() public view returns(string memory _isProved){\r\n      uint id = farmers[msg.sender].claim_id;\r\n      if(claims[id].isProved == 1){\r\n          return \"You've been Approved!\";\r\n      }else if(claims[id].isProved == 2){\r\n          return \"Sorry, your claim is rejected.\";\r\n      }else{\r\n          return \"pending\";\r\n      }\r\n  }\r\n\r\n\r\n///////////////////////////////Agent Implementation////////////////////////////////////////\r\n  //agent can approve the claim or not\r\n //agent can check the client's claim\r\n  /* address public agent_address= 0x14723A09ACff6D2A60DcdF7aA4AFf308FDDC160C;//set a fixed address for agent */\r\n  address public agent_address= 0xc9f11De50aadCA2Cc013663CBD94DB367cE53A49; //set a fixed address for agent\r\n\r\n  function isAgent() public view returns(bool _isAgent){\r\n      address senderAddress = msg.sender;\r\n      if(senderAddress == agent_address){\r\n          return true;\r\n      }\r\n      else{\r\n          return false;\r\n      }\r\n\r\n  }\r\n\r\n  //require agent access\r\n  function getClaim(uint _claimeId ) public view\r\n  returns (uint _claimId,string memory _crop, string memory _city, uint time, uint size, string memory _description){\r\n      require(msg.sender == agent_address,\"You are not authorized\");\r\n      return(\r\n          _claimeId,\r\n          claims[_claimeId].crop,\r\n          claims[_claimeId].city,\r\n          claims[_claimeId].time,\r\n          claims[_claimeId].size,\r\n          claims[_claimeId].description\r\n      );\r\n  }\r\n\r\n  //require agent approve\r\n  function agentApprove(uint claim_id, bool _isProved) public{\r\n      require(agent_address == msg.sender,\"You are not authorized\");\r\n      if(_isProved){\r\n          claims[claim_id].isProved = 1; //approve\r\n      }else{\r\n          claims[claim_id].isProved = 2; //reject\r\n      }\r\n  }\r\n\r\n  //Refund to farmer. Agent call it. Need modifier.Need to be tested.\r\n  function refund(address payable farmer) public payable{\r\n      require(agent_address == msg.sender,\"You are not authorized\");\r\n      farmer.transfer(msg.value);\r\n  }\r\n\r\n\r\n  //Agent can check for weather information\r\n  function getWeather(string memory _city, uint _time) public view returns (string memory c, uint t,string memory w){\r\n      return(weathers[_city][_time].city,\r\n      weathers[_city][_time].time,\r\n      weathers[_city][_time].weather);\r\n  }\r\n\r\n ///////////////////////////////Weather Implementation////////////////////////////////////////\r\n\r\n  /* address public weather_address= 0x4B0897b0513fdC7C541B6d9D7E929C4e5364D2dB;//set a fixed address for weather input */\r\n  address public weather_address= 0xadBCF40D5F23f15a947C09dBCcA4A4e940Aa0882;//set a fixed address for weather input\r\n\r\n  function isWeather() public view returns(bool _weather){\r\n      address senderAddress = msg.sender;\r\n      if(senderAddress == weather_address){\r\n          return true;\r\n      }\r\n      else{\r\n          return false;\r\n      }\r\n  }\r\n\r\n  struct Weather{\r\n      uint weatherId;\r\n      string city;\r\n      uint time;\r\n      string weather;\r\n  }\r\n\r\n  //mapping (uint => Weather) weathers;\r\n  mapping (string => mapping (uint => Weather)) weathers;\r\n\r\n  //for weather data input\r\n  //How to add all figures to blockchain, and search for the weather of a certain place and time.\r\n  function addWeather(string memory _city, uint _time, string memory _weather) public{\r\n      require(weather_address == msg.sender,\"You are not authorized\");\r\n      weather_counter = weather_counter + 1;\r\n      weathers[_city][_time].weatherId = weather_counter;\r\n      weathers[_city][_time].city = _city;\r\n      weathers[_city][_time].time = _time;\r\n      weathers[_city][_time].weather = _weather;\r\n  }\r\n\r\n}\r\n",
  "sourcePath": "C:/Users/Jieyun Hu/git/DistributedSystemTermProject/NewFrame/contracts/Insurance.sol",
  "compiler": {
    "name": "solc",
    "version": "0.5.8+commit.23d335f2.Emscripten.clang"
  },
  "schemaVersion": "3.0.16",
  "updatedAt": "2019-12-16T17:27:46.009Z",
  "devdoc": {
    "methods": {}
  },
  "userdoc": {
    "methods": {}
  }
}