{
  "contractName": "Insurance",
  "abi": [
    {
      "inputs": [],
      "payable": false,
      "stateMutability": "nonpayable",
      "type": "constructor"
    },
    {
      "anonymous": false,
      "inputs": [
        {
          "indexed": false,
          "internalType": "uint256",
          "name": "id",
          "type": "uint256"
        }
      ],
      "name": "claimAdded",
      "type": "event"
    },
    {
      "anonymous": false,
      "inputs": [
        {
          "indexed": false,
          "internalType": "uint256",
          "name": "farmerid",
          "type": "uint256"
        }
      ],
      "name": "farmerAdded",
      "type": "event"
    },
    {
      "anonymous": false,
      "inputs": [
        {
          "indexed": false,
          "internalType": "string",
          "name": "_city",
          "type": "string"
        }
      ],
      "name": "weatherAdded",
      "type": "event"
    },
    {
      "constant": true,
      "inputs": [],
      "name": "money",
      "outputs": [
        {
          "internalType": "uint256",
          "name": "",
          "type": "uint256"
        }
      ],
      "payable": false,
      "stateMutability": "view",
      "type": "function"
    },
    {
      "constant": false,
      "inputs": [
        {
          "internalType": "string",
          "name": "_userName",
          "type": "string"
        },
        {
          "internalType": "string",
          "name": "_pwd",
          "type": "string"
        }
      ],
      "name": "addFarmer",
      "outputs": [],
      "payable": false,
      "stateMutability": "nonpayable",
      "type": "function"
    },
    {
      "constant": true,
      "inputs": [
        {
          "internalType": "uint256",
          "name": "_farmerId",
          "type": "uint256"
        }
      ],
      "name": "getFarmer",
      "outputs": [
        {
          "internalType": "string",
          "name": "_userName",
          "type": "string"
        }
      ],
      "payable": false,
      "stateMutability": "view",
      "type": "function"
    },
    {
      "constant": true,
      "inputs": [
        {
          "internalType": "uint256",
          "name": "_claimeId",
          "type": "uint256"
        }
      ],
      "name": "getClaim",
      "outputs": [
        {
          "internalType": "uint256",
          "name": "_claimId",
          "type": "uint256"
        },
        {
          "internalType": "string",
          "name": "_crop",
          "type": "string"
        },
        {
          "internalType": "string",
          "name": "_city",
          "type": "string"
        },
        {
          "internalType": "uint256",
          "name": "time",
          "type": "uint256"
        },
        {
          "internalType": "uint256",
          "name": "size",
          "type": "uint256"
        },
        {
          "internalType": "string",
          "name": "_description",
          "type": "string"
        }
      ],
      "payable": false,
      "stateMutability": "view",
      "type": "function"
    },
    {
      "constant": false,
      "inputs": [
        {
          "internalType": "string",
          "name": "_crop",
          "type": "string"
        },
        {
          "internalType": "string",
          "name": "_city",
          "type": "string"
        },
        {
          "internalType": "uint256",
          "name": "_time",
          "type": "uint256"
        },
        {
          "internalType": "uint256",
          "name": "_size",
          "type": "uint256"
        },
        {
          "internalType": "string",
          "name": "_description",
          "type": "string"
        }
      ],
      "name": "addClaim",
      "outputs": [],
      "payable": false,
      "stateMutability": "nonpayable",
      "type": "function"
    },
    {
      "constant": false,
      "inputs": [
        {
          "internalType": "string",
          "name": "_city",
          "type": "string"
        },
        {
          "internalType": "uint256",
          "name": "_time",
          "type": "uint256"
        },
        {
          "internalType": "string",
          "name": "_weather",
          "type": "string"
        }
      ],
      "name": "addWeather",
      "outputs": [],
      "payable": false,
      "stateMutability": "nonpayable",
      "type": "function"
    },
    {
      "constant": false,
      "inputs": [
        {
          "internalType": "uint256",
          "name": "claim_id",
          "type": "uint256"
        },
        {
          "internalType": "bool",
          "name": "_isProved",
          "type": "bool"
        }
      ],
      "name": "agentApprove",
      "outputs": [],
      "payable": false,
      "stateMutability": "nonpayable",
      "type": "function"
    },
    {
      "constant": true,
      "inputs": [
        {
          "internalType": "uint256",
          "name": "claim_id",
          "type": "uint256"
        }
      ],
      "name": "checkStatus",
      "outputs": [
        {
          "internalType": "string",
          "name": "_isProved",
          "type": "string"
        }
      ],
      "payable": false,
      "stateMutability": "view",
      "type": "function"
    },
    {
      "constant": false,
      "inputs": [
        {
          "internalType": "address payable",
          "name": "farmer",
          "type": "address"
        }
      ],
      "name": "refund",
      "outputs": [],
      "payable": true,
      "stateMutability": "payable",
      "type": "function"
    }
  ],
  "bytecode": "0x608060405234801561001057600080fd5b50600a6000819055506111cb806100286000396000f3fe6080604052600436106100865760003560e01c8063991cd78b11610059578063991cd78b14610474578063ad0caa76146105d3578063ba86629114610687578063e1fd3fcb146106ce578063fa89401a146108d857610086565b80632858c7641461008b5780634ddd108a1461013f5780635aef24471461016a578063878355201461030b575b600080fd5b34801561009757600080fd5b506100c4600480360360208110156100ae57600080fd5b810190808035906020019092919050505061091c565b6040518080602001828103825283818151815260200191508051906020019080838360005b838110156101045780820151818401526020810190506100e9565b50505050905090810190601f1680156101315780820380516001836020036101000a031916815260200191505b509250505060405180910390f35b34801561014b57600080fd5b506101546109c2565b6040518082815260200191505060405180910390f35b34801561017657600080fd5b506101a36004803603602081101561018d57600080fd5b81019080803590602001909291905050506109c8565b60405180878152602001806020018060200186815260200185815260200180602001848103845289818151815260200191508051906020019080838360005b838110156101fd5780820151818401526020810190506101e2565b50505050905090810190601f16801561022a5780820380516001836020036101000a031916815260200191505b50848103835288818151815260200191508051906020019080838360005b83811015610263578082015181840152602081019050610248565b50505050905090810190601f1680156102905780820380516001836020036101000a031916815260200191505b50848103825285818151815260200191508051906020019080838360005b838110156102c95780820151818401526020810190506102ae565b50505050905090810190601f1680156102f65780820380516001836020036101000a031916815260200191505b50995050505050505050505060405180910390f35b34801561031757600080fd5b506104726004803603606081101561032e57600080fd5b810190808035906020019064010000000081111561034b57600080fd5b82018360208201111561035d57600080fd5b8035906020019184600183028401116401000000008311171561037f57600080fd5b91908080601f016020809104026020016040519081016040528093929190818152602001838380828437600081840152601f19601f82011690508083019250505050505050919291929080359060200190929190803590602001906401000000008111156103ec57600080fd5b8201836020820111156103fe57600080fd5b8035906020019184600183028401116401000000008311171561042057600080fd5b91908080601f016020809104026020016040519081016040528093929190818152602001838380828437600081840152601f19601f820116905080830192505050505050509192919290505050610c2c565b005b34801561048057600080fd5b506105d16004803603604081101561049757600080fd5b81019080803590602001906401000000008111156104b457600080fd5b8201836020820111156104c657600080fd5b803590602001918460018302840111640100000000831117156104e857600080fd5b91908080601f016020809104026020016040519081016040528093929190818152602001838380828437600081840152601f19601f8201169050808301925050505050505091929192908035906020019064010000000081111561054b57600080fd5b82018360208201111561055d57600080fd5b8035906020019184600183028401116401000000008311171561057f57600080fd5b91908080601f016020809104026020016040519081016040528093929190818152602001838380828437600081840152601f19601f820116905080830192505050505050509192919290505050610d4b565b005b3480156105df57600080fd5b5061060c600480360360208110156105f657600080fd5b8101908080359060200190929190505050610e0d565b6040518080602001828103825283818151815260200191508051906020019080838360005b8381101561064c578082015181840152602081019050610631565b50505050905090810190601f1680156106795780820380516001836020036101000a031916815260200191505b509250505060405180910390f35b34801561069357600080fd5b506106cc600480360360408110156106aa57600080fd5b8101908080359060200190929190803515159060200190929190505050610ec5565b005b3480156106da57600080fd5b506108d6600480360360a08110156106f157600080fd5b810190808035906020019064010000000081111561070e57600080fd5b82018360208201111561072057600080fd5b8035906020019184600183028401116401000000008311171561074257600080fd5b91908080601f016020809104026020016040519081016040528093929190818152602001838380828437600081840152601f19601f820116905080830192505050505050509192919290803590602001906401000000008111156107a557600080fd5b8201836020820111156107b757600080fd5b803590602001918460018302840111640100000000831117156107d957600080fd5b91908080601f016020809104026020016040519081016040528093929190818152602001838380828437600081840152601f19601f82011690508083019250505050505050919291929080359060200190929190803590602001909291908035906020019064010000000081111561085057600080fd5b82018360208201111561086257600080fd5b8035906020019184600183028401116401000000008311171561088457600080fd5b91908080601f016020809104026020016040519081016040528093929190818152602001838380828437600081840152601f19601f820116905080830192505050505050509192919290505050610ef7565b005b61091a600480360360208110156108ee57600080fd5b81019080803573ffffffffffffffffffffffffffffffffffffffff169060200190929190505050611027565b005b60606004600083815260200190815260200160002060060160009054906101000a900460ff1615610984576040518060400160405280601581526020017f596f75277665206265656e20417070726f76656421000000000000000000000081525090506109bd565b6040518060400160405280601381526020017f57616974696e6720666f7220617070726f76650000000000000000000000000081525090505b919050565b60005481565b600060608060008060608660046000898152602001908152602001600020600101600460008a8152602001908152602001600020600201600460008b815260200190815260200160002060030154600460008c815260200190815260200160002060040154600460008d8152602001908152602001600020600501848054600181600116156101000203166002900480601f016020809104026020016040519081016040528092919081815260200182805460018160011615610100020316600290048015610ad85780601f10610aad57610100808354040283529160200191610ad8565b820191906000526020600020905b815481529060010190602001808311610abb57829003601f168201915b50505050509450838054600181600116156101000203166002900480601f016020809104026020016040519081016040528092919081815260200182805460018160011615610100020316600290048015610b745780601f10610b4957610100808354040283529160200191610b74565b820191906000526020600020905b815481529060010190602001808311610b5757829003601f168201915b50505050509350808054600181600116156101000203166002900480601f016020809104026020016040519081016040528092919081815260200182805460018160011615610100020316600290048015610c105780601f10610be557610100808354040283529160200191610c10565b820191906000526020600020905b815481529060010190602001808311610bf357829003601f168201915b5050505050905095509550955095509550955091939550919395565b806005846040518082805190602001908083835b60208310610c635780518252602082019150602081019050602083039250610c40565b6001836020036101000a03801982511681845116808217855250505050505090500191505090815260200160405180910390209080519060200190610ca9929190611071565b507ff90df2adbed2cfcf4a76ead9441f2c63ca65fd9b9717fc77afeecee71957ded7836040518080602001828103825283818151815260200191508051906020019080838360005b83811015610d0c578082015181840152602081019050610cf1565b50505050905090810190601f168015610d395780820380516001836020036101000a031916815260200191505b509250505060405180910390a1505050565b6001600254016002819055506040518060600160405280600254815260200183815260200182815250600360006002548152602001908152602001600020600082015181600001556020820151816001019080519060200190610daf9291906110f1565b506040820151816002019080519060200190610dcc9291906110f1565b509050507f474989e6773f14b69e98f0658ba157019a672ebcf32e6619612bd9626d5864c66002546040518082815260200191505060405180910390a15050565b6060600360008381526020019081526020016000206001018054600181600116156101000203166002900480601f016020809104026020016040519081016040528092919081815260200182805460018160011615610100020316600290048015610eb95780601f10610e8e57610100808354040283529160200191610eb9565b820191906000526020600020905b815481529060010190602001808311610e9c57829003601f168201915b50505050509050919050565b806004600084815260200190815260200160002060060160006101000a81548160ff0219169083151502179055505050565b60018054016001819055506040518060e00160405280600154815260200186815260200185815260200184815260200183815260200182815260200160001515815250600460006001548152602001908152602001600020600082015181600001556020820151816001019080519060200190610f759291906110f1565b506040820151816002019080519060200190610f929291906110f1565b50606082015181600301556080820151816004015560a0820151816005019080519060200190610fc39291906110f1565b5060c08201518160060160006101000a81548160ff0219169083151502179055509050507f35afc9d8477d0fd4cf4a54f83cf5881d9d51e77725fc37cc1c8a3074e25658f46001546040518082815260200191505060405180910390a15050505050565b8073ffffffffffffffffffffffffffffffffffffffff166108fc349081150290604051600060405180830381858888f1935050505015801561106d573d6000803e3d6000fd5b5050565b828054600181600116156101000203166002900490600052602060002090601f016020900481019282601f106110b257805160ff19168380011785556110e0565b828001600101855582156110e0579182015b828111156110df5782518255916020019190600101906110c4565b5b5090506110ed9190611171565b5090565b828054600181600116156101000203166002900490600052602060002090601f016020900481019282601f1061113257805160ff1916838001178555611160565b82800160010185558215611160579182015b8281111561115f578251825591602001919060010190611144565b5b50905061116d9190611171565b5090565b61119391905b8082111561118f576000816000905550600101611177565b5090565b9056fea265627a7a72315820dd81acfb0dc5ac66034147fa3024e120edfc5c0997e28efa62cb6d15582524c064736f6c634300050c0032",
  "source": "pragma solidity >=0.4.21 <0.6.0;\n\n/* contract Insurance {\n\n  string public candidate;\n\n  constructor() public {\n    candidate = \"test1\";\n  }\n} */\n\n\ncontract Insurance {\n  //modifiers will be added to constrain the access.\n  uint public money;\n  uint claim_counter;\n  uint farmer_counter;\n\n  struct Farmer{\n      uint farmerId;\n      string userName;\n      string pwd;\n  }\n\n  mapping (uint => Farmer) farmers;\n  event farmerAdded(uint farmerid);\n\n  constructor() public {\n    money = 10;\n  }\n\n  //when register, add farmer information\n  function addFarmer(string memory _userName, string memory _pwd) public{\n    farmer_counter = farmer_counter + 1;\n      farmers[farmer_counter] = Farmer(\n          {farmerId: farmer_counter,\n           userName: _userName,\n           pwd: _pwd\n          });\n      emit farmerAdded(farmer_counter);\n  }\n\n  //for both farmer and agent, they can check the farmers userName\n  function getFarmer(uint _farmerId) public view returns(string memory _userName){\n      return farmers[_farmerId].userName;\n  }\n\n  //agent can check the client's claim\n  function getClaim(uint _claimeId ) public view\n  returns (uint _claimId,string memory _crop, string memory _city, uint time, uint size, string memory _description){\n      return(\n          _claimeId,\n          claims[_claimeId].crop,\n          claims[_claimeId].city,\n          claims[_claimeId].time,\n          claims[_claimeId].size,\n          claims[_claimeId].description\n      );\n  }\n  struct Claim{\n      uint claimId;\n      string crop;\n      string city;\n      uint time;\n      uint size;\n      string description;\n      bool isProved;\n  }\n  mapping (uint => Claim) claims;\n  event claimAdded(uint id);\n\n  //farmer claim a new claim\n  //Only registered farmer can do it.\n  function addClaim(string memory _crop, string memory _city, uint _time, uint _size, string memory _description) public{\n      claim_counter = claim_counter + 1;\n      claims[claim_counter] = Claim(\n          {claimId: claim_counter,\n          crop: _crop,\n          city: _city,\n          time: _time,\n          size: _size,\n          description: _description,\n          isProved: false\n          });\n      emit claimAdded(claim_counter);\n  }\n\n  //need to find a time data type.\n  struct Weather{\n      string city;\n      uint time;\n      string weather;\n  }\n\n  mapping (string => string) weathers;\n  event weatherAdded(string _city);\n  //for weather data input\n  //How to add all figures to blockchain, and search for the weather of a certain place and time.\n  function addWeather(string memory _city, uint _time, string memory _weather) public{\n      weathers[_city] = _weather;\n      emit weatherAdded(_city);\n  }\n\n  //agent can approve the claim or not\n  function agentApprove(uint claim_id, bool _isProved) public{\n      claims[claim_id].isProved = _isProved;\n  }\n\n  //farmer can check the claim status\n  function checkStatus(uint claim_id) public view returns(string memory _isProved){\n      if(claims[claim_id].isProved){\n          return \"You've been Approved!\";\n      }else{\n          return \"Waiting for approve\";\n      }\n  }\n\n  //Refund to farmer. Agent call it. Need modifier.Need to be tested.\n  function refund(address payable farmer) public payable{\n      farmer.transfer(msg.value);\n  }\n}\n",
  "sourcePath": "/Users/ypli/gitDocs/DistributedSystemTermProject/NewFrame/contracts/Insurance.sol",
  "compiler": {
    "name": "solc",
    "version": "0.5.12+commit.7709ece9.Emscripten.clang"
  },
  "schemaVersion": "3.0.19",
  "updatedAt": "2019-12-15T19:51:29.273Z",
  "networkType": "ethereum",
  "devdoc": {
    "methods": {}
  },
  "userdoc": {
    "methods": {}
  }
}