{
  "contractName": "Insurance",
  "abi": [
    {
      "inputs": [],
      "payable": false,
      "stateMutability": "nonpayable",
      "type": "constructor"
    },
    {
      "anonymous": false,
      "inputs": [
        {
          "indexed": false,
          "internalType": "uint256",
          "name": "id",
          "type": "uint256"
        }
      ],
      "name": "claimAdded",
      "type": "event"
    },
    {
      "anonymous": false,
      "inputs": [
        {
          "indexed": false,
          "internalType": "uint256",
          "name": "farmerid",
          "type": "uint256"
        }
      ],
      "name": "farmerAdded",
      "type": "event"
    },
    {
      "anonymous": false,
      "inputs": [
        {
          "indexed": false,
          "internalType": "string",
          "name": "_city",
          "type": "string"
        }
      ],
      "name": "weatherAdded",
      "type": "event"
    },
    {
      "constant": true,
      "inputs": [],
      "name": "agent_address",
      "outputs": [
        {
          "internalType": "address",
          "name": "",
          "type": "address"
        }
      ],
      "payable": false,
      "stateMutability": "view",
      "type": "function"
    },
    {
      "constant": true,
      "inputs": [],
      "name": "money",
      "outputs": [
        {
          "internalType": "uint256",
          "name": "",
          "type": "uint256"
        }
      ],
      "payable": false,
      "stateMutability": "view",
      "type": "function"
    },
    {
      "constant": true,
      "inputs": [],
      "name": "weather_address",
      "outputs": [
        {
          "internalType": "address",
          "name": "",
          "type": "address"
        }
      ],
      "payable": false,
      "stateMutability": "view",
      "type": "function"
    },
    {
      "constant": false,
      "inputs": [
        {
          "internalType": "string",
          "name": "_userName",
          "type": "string"
        },
        {
          "internalType": "string",
          "name": "_pwd",
          "type": "string"
        }
      ],
      "name": "addFarmer",
      "outputs": [],
      "payable": false,
      "stateMutability": "nonpayable",
      "type": "function"
    },
    {
      "constant": true,
      "inputs": [
        {
          "internalType": "address",
          "name": "_farmerAddress",
          "type": "address"
        }
      ],
      "name": "getFarmer",
      "outputs": [
        {
          "internalType": "uint256",
          "name": "id",
          "type": "uint256"
        },
        {
          "internalType": "string",
          "name": "_userName",
          "type": "string"
        }
      ],
      "payable": false,
      "stateMutability": "view",
      "type": "function"
    },
    {
      "constant": true,
      "inputs": [],
      "name": "isAddressRegistered",
      "outputs": [
        {
          "internalType": "bool",
          "name": "registered",
          "type": "bool"
        }
      ],
      "payable": false,
      "stateMutability": "view",
      "type": "function"
    },
    {
      "constant": false,
      "inputs": [
        {
          "internalType": "string",
          "name": "_crop",
          "type": "string"
        },
        {
          "internalType": "string",
          "name": "_city",
          "type": "string"
        },
        {
          "internalType": "uint256",
          "name": "_time",
          "type": "uint256"
        },
        {
          "internalType": "uint256",
          "name": "_size",
          "type": "uint256"
        },
        {
          "internalType": "string",
          "name": "_description",
          "type": "string"
        }
      ],
      "name": "addClaim",
      "outputs": [],
      "payable": false,
      "stateMutability": "nonpayable",
      "type": "function"
    },
    {
      "constant": true,
      "inputs": [
        {
          "internalType": "uint256",
          "name": "claim_id",
          "type": "uint256"
        }
      ],
      "name": "checkStatus",
      "outputs": [
        {
          "internalType": "string",
          "name": "_isProved",
          "type": "string"
        }
      ],
      "payable": false,
      "stateMutability": "view",
      "type": "function"
    },
    {
      "constant": true,
      "inputs": [],
      "name": "isAgent",
      "outputs": [
        {
          "internalType": "bool",
          "name": "_isAgent",
          "type": "bool"
        }
      ],
      "payable": false,
      "stateMutability": "view",
      "type": "function"
    },
    {
      "constant": true,
      "inputs": [
        {
          "internalType": "uint256",
          "name": "_claimeId",
          "type": "uint256"
        }
      ],
      "name": "getClaim",
      "outputs": [
        {
          "internalType": "uint256",
          "name": "_claimId",
          "type": "uint256"
        },
        {
          "internalType": "string",
          "name": "_crop",
          "type": "string"
        },
        {
          "internalType": "string",
          "name": "_city",
          "type": "string"
        },
        {
          "internalType": "uint256",
          "name": "time",
          "type": "uint256"
        },
        {
          "internalType": "uint256",
          "name": "size",
          "type": "uint256"
        },
        {
          "internalType": "string",
          "name": "_description",
          "type": "string"
        }
      ],
      "payable": false,
      "stateMutability": "view",
      "type": "function"
    },
    {
      "constant": false,
      "inputs": [
        {
          "internalType": "uint256",
          "name": "claim_id",
          "type": "uint256"
        },
        {
          "internalType": "bool",
          "name": "_isProved",
          "type": "bool"
        }
      ],
      "name": "agentApprove",
      "outputs": [],
      "payable": false,
      "stateMutability": "nonpayable",
      "type": "function"
    },
    {
      "constant": false,
      "inputs": [
        {
          "internalType": "address payable",
          "name": "farmer",
          "type": "address"
        }
      ],
      "name": "refund",
      "outputs": [],
      "payable": true,
      "stateMutability": "payable",
      "type": "function"
    },
    {
      "constant": true,
      "inputs": [],
      "name": "isWeather",
      "outputs": [
        {
          "internalType": "bool",
          "name": "_weather",
          "type": "bool"
        }
      ],
      "payable": false,
      "stateMutability": "view",
      "type": "function"
    },
    {
      "constant": false,
      "inputs": [
        {
          "internalType": "string",
          "name": "_city",
          "type": "string"
        },
        {
          "internalType": "uint256",
          "name": "_time",
          "type": "uint256"
        },
        {
          "internalType": "string",
          "name": "_weather",
          "type": "string"
        }
      ],
      "name": "addWeather",
      "outputs": [],
      "payable": false,
      "stateMutability": "nonpayable",
      "type": "function"
    }
  ],
  "bytecode": "0x608060405273c9f11de50aadca2cc013663cbd94db367ce53a49600560006101000a81548173ffffffffffffffffffffffffffffffffffffffff021916908373ffffffffffffffffffffffffffffffffffffffff160217905550734b0897b0513fdc7c541b6d9d7e929c4e5364d2db600660006101000a81548173ffffffffffffffffffffffffffffffffffffffff021916908373ffffffffffffffffffffffffffffffffffffffff1602179055503480156100ba57600080fd5b50600a6000819055506118c9806100d26000396000f3fe6080604052600436106100dd5760003560e01c8063991cd78b1161007f578063e7609c1611610059578063e7609c1614610958578063ec55965014610a29578063f07c706314610a58578063fa89401a14610a87576100dd565b8063991cd78b146105a8578063ba86629114610707578063e1fd3fcb1461074e576100dd565b8063540e7084116100bb578063540e7084146102185780635aef24471461026f5780638783552014610410578063932243ea14610579576100dd565b806326284617146100e25780632858c764146101395780634ddd108a146101ed575b600080fd5b3480156100ee57600080fd5b506100f7610acb565b604051808273ffffffffffffffffffffffffffffffffffffffff1673ffffffffffffffffffffffffffffffffffffffff16815260200191505060405180910390f35b34801561014557600080fd5b506101726004803603602081101561015c57600080fd5b8101908080359060200190929190505050610af1565b6040518080602001828103825283818151815260200191508051906020019080838360005b838110156101b2578082015181840152602081019050610197565b50505050905090810190601f1680156101df5780820380516001836020036101000a031916815260200191505b509250505060405180910390f35b3480156101f957600080fd5b50610202610c09565b6040518082815260200191505060405180910390f35b34801561022457600080fd5b5061022d610c0f565b604051808273ffffffffffffffffffffffffffffffffffffffff1673ffffffffffffffffffffffffffffffffffffffff16815260200191505060405180910390f35b34801561027b57600080fd5b506102a86004803603602081101561029257600080fd5b8101908080359060200190929190505050610c35565b60405180878152602001806020018060200186815260200185815260200180602001848103845289818151815260200191508051906020019080838360005b838110156103025780820151818401526020810190506102e7565b50505050905090810190601f16801561032f5780820380516001836020036101000a031916815260200191505b50848103835288818151815260200191508051906020019080838360005b8381101561036857808201518184015260208101905061034d565b50505050905090810190601f1680156103955780820380516001836020036101000a031916815260200191505b50848103825285818151815260200191508051906020019080838360005b838110156103ce5780820151818401526020810190506103b3565b50505050905090810190601f1680156103fb5780820380516001836020036101000a031916815260200191505b50995050505050505050505060405180910390f35b34801561041c57600080fd5b506105776004803603606081101561043357600080fd5b810190808035906020019064010000000081111561045057600080fd5b82018360208201111561046257600080fd5b8035906020019184600183028401116401000000008311171561048457600080fd5b91908080601f016020809104026020016040519081016040528093929190818152602001838380828437600081840152601f19601f82011690508083019250505050505050919291929080359060200190929190803590602001906401000000008111156104f157600080fd5b82018360208201111561050357600080fd5b8035906020019184600183028401116401000000008311171561052557600080fd5b91908080601f016020809104026020016040519081016040528093929190818152602001838380828437600081840152601f19601f820116905080830192505050505050509192919290505050610f5c565b005b34801561058557600080fd5b5061058e61113e565b604051808215151515815260200191505060405180910390f35b3480156105b457600080fd5b50610705600480360360408110156105cb57600080fd5b81019080803590602001906401000000008111156105e857600080fd5b8201836020820111156105fa57600080fd5b8035906020019184600183028401116401000000008311171561061c57600080fd5b91908080601f016020809104026020016040519081016040528093929190818152602001838380828437600081840152601f19601f8201169050808301925050505050505091929192908035906020019064010000000081111561067f57600080fd5b82018360208201111561069157600080fd5b803590602001918460018302840111640100000000831117156106b357600080fd5b91908080601f016020809104026020016040519081016040528093929190818152602001838380828437600081840152601f19601f8201169050808301925050505050505091929192905050506111ad565b005b34801561071357600080fd5b5061074c6004803603604081101561072a57600080fd5b81019080803590602001909291908035151590602001909291905050506112c8565b005b34801561075a57600080fd5b50610956600480360360a081101561077157600080fd5b810190808035906020019064010000000081111561078e57600080fd5b8201836020820111156107a057600080fd5b803590602001918460018302840111640100000000831117156107c257600080fd5b91908080601f016020809104026020016040519081016040528093929190818152602001838380828437600081840152601f19601f8201169050808301925050505050505091929192908035906020019064010000000081111561082557600080fd5b82018360208201111561083757600080fd5b8035906020019184600183028401116401000000008311171561085957600080fd5b91908080601f016020809104026020016040519081016040528093929190818152602001838380828437600081840152601f19601f8201169050808301925050505050505091929192908035906020019092919080359060200190929190803590602001906401000000008111156108d057600080fd5b8201836020820111156108e257600080fd5b8035906020019184600183028401116401000000008311171561090457600080fd5b91908080601f016020809104026020016040519081016040528093929190818152602001838380828437600081840152601f19601f820116905080830192505050505050509192919290505050611338565b005b34801561096457600080fd5b506109a76004803603602081101561097b57600080fd5b81019080803573ffffffffffffffffffffffffffffffffffffffff16906020019092919050505061152c565b6040518083815260200180602001828103825283818151815260200191508051906020019080838360005b838110156109ed5780820151818401526020810190506109d2565b50505050905090810190601f168015610a1a5780820380516001836020036101000a031916815260200191505b50935050505060405180910390f35b348015610a3557600080fd5b50610a3e61165a565b604051808215151515815260200191505060405180910390f35b348015610a6457600080fd5b50610a6d6116c9565b604051808215151515815260200191505060405180910390f35b610ac960048036036020811015610a9d57600080fd5b81019080803573ffffffffffffffffffffffffffffffffffffffff169060200190929190505050611725565b005b600560009054906101000a900473ffffffffffffffffffffffffffffffffffffffff1681565b606060016004600084815260200190815260200160002060060160009054906101000a900460ff1660ff161415610b5f576040518060400160405280601581526020017f596f75277665206265656e20417070726f7665642100000000000000000000008152509050610c04565b60026004600084815260200190815260200160002060060160009054906101000a900460ff1660ff161415610bcb576040518060400160405280601e81526020017f536f7272792c20796f757220636c61696d2069732072656a65637465642e00008152509050610c04565b6040518060400160405280600781526020017f70656e64696e670000000000000000000000000000000000000000000000000081525090505b919050565b60005481565b600660009054906101000a900473ffffffffffffffffffffffffffffffffffffffff1681565b600060608060008060603373ffffffffffffffffffffffffffffffffffffffff16600560009054906101000a900473ffffffffffffffffffffffffffffffffffffffff1673ffffffffffffffffffffffffffffffffffffffff1614610d02576040517f08c379a00000000000000000000000000000000000000000000000000000000081526004018080602001828103825260168152602001807f596f7520617265206e6f7420617574686f72697a65640000000000000000000081525060200191505060405180910390fd5b8660046000898152602001908152602001600020600101600460008a8152602001908152602001600020600201600460008b815260200190815260200160002060030154600460008c815260200190815260200160002060040154600460008d8152602001908152602001600020600501848054600181600116156101000203166002900480601f016020809104026020016040519081016040528092919081815260200182805460018160011615610100020316600290048015610e085780601f10610ddd57610100808354040283529160200191610e08565b820191906000526020600020905b815481529060010190602001808311610deb57829003601f168201915b50505050509450838054600181600116156101000203166002900480601f016020809104026020016040519081016040528092919081815260200182805460018160011615610100020316600290048015610ea45780601f10610e7957610100808354040283529160200191610ea4565b820191906000526020600020905b815481529060010190602001808311610e8757829003601f168201915b50505050509350808054600181600116156101000203166002900480601f016020809104026020016040519081016040528092919081815260200182805460018160011615610100020316600290048015610f405780601f10610f1557610100808354040283529160200191610f40565b820191906000526020600020905b815481529060010190602001808311610f2357829003601f168201915b5050505050905095509550955095509550955091939550919395565b3373ffffffffffffffffffffffffffffffffffffffff16600660009054906101000a900473ffffffffffffffffffffffffffffffffffffffff1673ffffffffffffffffffffffffffffffffffffffff161461101f576040517f08c379a00000000000000000000000000000000000000000000000000000000081526004018080602001828103825260168152602001807f596f7520617265206e6f7420617574686f72697a65640000000000000000000081525060200191505060405180910390fd5b806007846040518082805190602001908083835b602083106110565780518252602082019150602081019050602083039250611033565b6001836020036101000a0380198251168184511680821785525050505050509050019150509081526020016040518091039020908051906020019061109c92919061176f565b507ff90df2adbed2cfcf4a76ead9441f2c63ca65fd9b9717fc77afeecee71957ded7836040518080602001828103825283818151815260200191508051906020019080838360005b838110156110ff5780820151818401526020810190506110e4565b50505050905090810190601f16801561112c5780820380516001836020036101000a031916815260200191505b509250505060405180910390a1505050565b600080339050600560009054906101000a900473ffffffffffffffffffffffffffffffffffffffff1673ffffffffffffffffffffffffffffffffffffffff168173ffffffffffffffffffffffffffffffffffffffff1614156111a45760019150506111aa565b60009150505b90565b60003390506001600254016002819055506040518060800160405280600254815260200184815260200183815260200160011515815250600360008373ffffffffffffffffffffffffffffffffffffffff1673ffffffffffffffffffffffffffffffffffffffff1681526020019081526020016000206000820151816000015560208201518160010190805190602001906112499291906117ef565b5060408201518160020190805190602001906112669291906117ef565b5060608201518160030160006101000a81548160ff0219169083151502179055509050507f474989e6773f14b69e98f0658ba157019a672ebcf32e6619612bd9626d5864c66002546040518082815260200191505060405180910390a1505050565b80156113035760016004600084815260200190815260200160002060060160006101000a81548160ff021916908360ff160217905550611334565b60026004600084815260200190815260200160002060060160006101000a81548160ff021916908360ff1602179055505b5050565b6001805401600181905550600360003373ffffffffffffffffffffffffffffffffffffffff1673ffffffffffffffffffffffffffffffffffffffff16815260200190815260200160002060030160009054906101000a900460ff16611405576040517f08c379a00000000000000000000000000000000000000000000000000000000081526004018080602001828103825260158152602001807f506c65617365207265676973746572206669727374000000000000000000000081525060200191505060405180910390fd5b6040518060e001604052806001548152602001868152602001858152602001848152602001838152602001828152602001600060ff168152506004600060015481526020019081526020016000206000820151816000015560208201518160010190805190602001906114799291906117ef565b5060408201518160020190805190602001906114969291906117ef565b50606082015181600301556080820151816004015560a08201518160050190805190602001906114c79291906117ef565b5060c08201518160060160006101000a81548160ff021916908360ff1602179055509050507f35afc9d8477d0fd4cf4a54f83cf5881d9d51e77725fc37cc1c8a3074e25658f46001546040518082815260200191505060405180910390a15050505050565b60006060600360008473ffffffffffffffffffffffffffffffffffffffff1673ffffffffffffffffffffffffffffffffffffffff16815260200190815260200160002060000154600360008573ffffffffffffffffffffffffffffffffffffffff1673ffffffffffffffffffffffffffffffffffffffff168152602001908152602001600020600101808054600181600116156101000203166002900480601f01602080910402602001604051908101604052809291908181526020018280546001816001161561010002031660029004801561164a5780601f1061161f5761010080835404028352916020019161164a565b820191906000526020600020905b81548152906001019060200180831161162d57829003601f168201915b5050505050905091509150915091565b600080339050600660009054906101000a900473ffffffffffffffffffffffffffffffffffffffff1673ffffffffffffffffffffffffffffffffffffffff168173ffffffffffffffffffffffffffffffffffffffff1614156116c05760019150506116c6565b60009150505b90565b600080339050600360008273ffffffffffffffffffffffffffffffffffffffff1673ffffffffffffffffffffffffffffffffffffffff16815260200190815260200160002060030160009054906101000a900460ff1691505090565b8073ffffffffffffffffffffffffffffffffffffffff166108fc349081150290604051600060405180830381858888f1935050505015801561176b573d6000803e3d6000fd5b5050565b828054600181600116156101000203166002900490600052602060002090601f016020900481019282601f106117b057805160ff19168380011785556117de565b828001600101855582156117de579182015b828111156117dd5782518255916020019190600101906117c2565b5b5090506117eb919061186f565b5090565b828054600181600116156101000203166002900490600052602060002090601f016020900481019282601f1061183057805160ff191683800117855561185e565b8280016001018555821561185e579182015b8281111561185d578251825591602001919060010190611842565b5b50905061186b919061186f565b5090565b61189191905b8082111561188d576000816000905550600101611875565b5090565b9056fea265627a7a72315820b1c130c5ef363a5066339c3e0d6d94927e47919ca7fcdcb6aad0b724ef0881dd64736f6c634300050c0032",
  "source": "pragma solidity >=0.4.21 <0.6.0;\n\ncontract Insurance {\n\n  //modifiers will be added to constrain the access.\n  uint public money;\n  uint claim_counter;\n  uint farmer_counter;\n\n///////////////////////////////farmers Implementation///////////////////////////////////////////\n  struct Farmer{\n      uint farmerId;\n      string userName;\n      string pwd;\n      bool isRegisterd;\n  }\n\n  mapping (address => Farmer) farmers;\n  event farmerAdded(uint farmerid);\n\n  constructor() public {\n    money = 10;\n  }\n\n  //when register, add farmer information\n  function addFarmer(string memory _userName, string memory _pwd) public{\n    address farmer_address = msg.sender;\n    farmer_counter = farmer_counter + 1;\n      farmers[farmer_address] = Farmer(\n          {farmerId: farmer_counter,\n           userName: _userName,\n           pwd: _pwd,\n           isRegisterd : true\n          });\n      emit farmerAdded(farmer_counter);\n  }\n\n  //for both farmer and agent, they can check the farmers userName\n  function getFarmer(address _farmerAddress) public view returns (uint id, string memory _userName){\n      return (farmers[_farmerAddress].farmerId,\n       farmers[_farmerAddress].userName);\n  }\n\n  //check whether is registered by address\n  function isAddressRegistered() public view returns (bool registered){\n      address farmer_address = msg.sender;\n      return farmers[farmer_address].isRegisterd;\n  }\n\n  struct Claim{\n      uint claimId;\n      string crop;\n      string city;\n      uint time;\n      uint size;\n      string description;\n      uint8 isProved; //0:pending, 1:proved, 2:reject\n  }\n  mapping (uint => Claim) claims;\n  event claimAdded(uint id);\n\n  //farmer claim a new claim\n  //Only registered farmer can do it.\n  function addClaim(string memory _crop, string memory _city, uint _time, uint _size, string memory _description) public{\n      claim_counter = claim_counter + 1;\n      require(farmers[msg.sender].isRegisterd,\"Please register first\");//farmer should be registered\n      claims[claim_counter] = Claim(\n          {claimId: claim_counter,\n          crop: _crop,\n          city: _city,\n          time: _time,\n          size: _size,\n          description: _description,\n          isProved: 0\n          });\n      emit claimAdded(claim_counter);\n  }\n    //farmer can check the claim status\n  function checkStatus(uint claim_id) public view returns(string memory _isProved){\n      if(claims[claim_id].isProved == 1){\n          return \"You've been Approved!\";\n      }else if(claims[claim_id].isProved == 2){\n          return \"Sorry, your claim is rejected.\";\n      }else{\n          return \"pending\";\n      }\n  }\n\n\n///////////////////////////////Agent Implementation////////////////////////////////////////\n  //agent can approve the claim or not\n //agent can check the client's claim\n  /* address public agent_address= 0x14723A09ACff6D2A60DcdF7aA4AFf308FDDC160C;//set a fixed address for agent */\n  address public agent_address= 0xc9f11De50aadCA2Cc013663CBD94DB367cE53A49; //set a fixed address for agent\n\n  function isAgent() public view returns(bool _isAgent){\n      address senderAddress = msg.sender;\n      if(senderAddress == agent_address){\n          return true;\n      }\n      else{\n          return false;\n      }\n\n  }\n\n  function getClaim(uint _claimeId ) public view\n  returns (uint _claimId,string memory _crop, string memory _city, uint time, uint size, string memory _description){\n      require(agent_address == msg.sender,\"You are not authorized\");\n      return(\n          _claimeId,\n          claims[_claimeId].crop,\n          claims[_claimeId].city,\n          claims[_claimeId].time,\n          claims[_claimeId].size,\n          claims[_claimeId].description\n      );\n  }\n\n  function agentApprove(uint claim_id, bool _isProved) public{\n      if(_isProved){\n          claims[claim_id].isProved = 1; //approve\n      }else{\n          claims[claim_id].isProved = 2; //reject\n      }\n  }\n\n  //Refund to farmer. Agent call it. Need modifier.Need to be tested.\n  function refund(address payable farmer) public payable{\n      farmer.transfer(msg.value);\n  }\n\n ///////////////////////////////Weather Implementation////////////////////////////////////////\n\n  address public weather_address= 0x4B0897b0513fdC7C541B6d9D7E929C4e5364D2dB;//set a fixed address for weather input\n\n  function isWeather() public view returns(bool _weather){\n      address senderAddress = msg.sender;\n      if(senderAddress == weather_address){\n          return true;\n      }\n      else{\n          return false;\n      }\n  }\n\n  struct Weather{\n      string city;\n      uint time;\n      string weather;\n  }\n\n  mapping (string => string) weathers;\n  event weatherAdded(string _city);\n  //for weather data input\n  //How to add all figures to blockchain, and search for the weather of a certain place and time.\n  function addWeather(string memory _city, uint _time, string memory _weather) public{\n      require(weather_address == msg.sender,\"You are not authorized\");\n      weathers[_city] = _weather;\n      emit weatherAdded(_city);\n  }\n}\n",
  "sourcePath": "/Users/ypli/gitDocs/DistributedSystemTermProject/NewFrame/contracts/Insurance.sol",
  "compiler": {
    "name": "solc",
    "version": "0.5.12+commit.7709ece9.Emscripten.clang"
  },
  "schemaVersion": "3.0.19",
  "updatedAt": "2019-12-15T23:52:57.492Z",
  "networkType": "ethereum",
  "devdoc": {
    "methods": {}
  },
  "userdoc": {
    "methods": {}
  }
}